{
  "contractName": "AdvancedStorage",
  "abi": [
    {
      "inputs": [
        {
          "internalType": "uint256",
          "name": "",
          "type": "uint256"
        }
      ],
      "name": "arrayStorage",
      "outputs": [
        {
          "internalType": "uint256",
          "name": "",
          "type": "uint256"
        }
      ],
      "stateMutability": "view",
      "type": "function",
      "constant": true
    },
    {
      "inputs": [
        {
          "internalType": "uint256",
          "name": "id",
          "type": "uint256"
        }
      ],
      "name": "add",
      "outputs": [],
      "stateMutability": "nonpayable",
      "type": "function"
    },
    {
      "inputs": [
        {
          "internalType": "uint256",
          "name": "index",
          "type": "uint256"
        }
      ],
      "name": "get",
      "outputs": [
        {
          "internalType": "uint256",
          "name": "",
          "type": "uint256"
        }
      ],
      "stateMutability": "view",
      "type": "function",
      "constant": true
    },
    {
      "inputs": [],
      "name": "getAll",
      "outputs": [
        {
          "internalType": "uint256[]",
          "name": "",
          "type": "uint256[]"
        }
      ],
      "stateMutability": "view",
      "type": "function",
      "constant": true
    },
    {
      "inputs": [],
      "name": "storageLength",
      "outputs": [
        {
          "internalType": "uint256",
          "name": "",
          "type": "uint256"
        }
      ],
      "stateMutability": "view",
      "type": "function",
      "constant": true
    }
  ],
  "bytecode": "0x608060405234801561001057600080fd5b506103c6806100206000396000f3fe608060405234801561001057600080fd5b50600436106100575760003560e01c80631003e2d21461005c57806353ed5143146100785780639507d39a14610096578063a9e74546146100c6578063ffc850fd146100e4575b600080fd5b6100766004803603810190610071919061022a565b610114565b005b610080610140565b60405161008d9190610315565b60405180910390f35b6100b060048036038101906100ab919061022a565b610198565b6040516100bd9190610346565b60405180910390f35b6100ce6101bf565b6040516100db9190610346565b60405180910390f35b6100fe60048036038101906100f9919061022a565b6101cb565b60405161010b9190610346565b60405180910390f35b600081908060018154018082558091505060019003906000526020600020016000909190919091505550565b6060600080548060200260200160405190810160405280929190818152602001828054801561018e57602002820191906000526020600020905b81548152602001906001019080831161017a575b5050505050905090565b60008082815481106101ad576101ac610361565b5b90600052602060002001549050919050565b60008080549050905090565b600081815481106101db57600080fd5b906000526020600020016000915090505481565b600080fd5b6000819050919050565b610207816101f4565b811461021257600080fd5b50565b600081359050610224816101fe565b92915050565b6000602082840312156102405761023f6101ef565b5b600061024e84828501610215565b91505092915050565b600081519050919050565b600082825260208201905092915050565b6000819050602082019050919050565b61028c816101f4565b82525050565b600061029e8383610283565b60208301905092915050565b6000602082019050919050565b60006102c282610257565b6102cc8185610262565b93506102d783610273565b8060005b838110156103085781516102ef8882610292565b97506102fa836102aa565b9250506001810190506102db565b5085935050505092915050565b6000602082019050818103600083015261032f81846102b7565b905092915050565b610340816101f4565b82525050565b600060208201905061035b6000830184610337565b92915050565b7f4e487b7100000000000000000000000000000000000000000000000000000000600052603260045260246000fdfea26469706673582212204e5cd1474df4247d94b904e7405f7f321d76cf284a273bea17d84870a76ffd2964736f6c634300080b0033",
  "immutableReferences": {},
  "source": "// SPDX-License-Identifier: MIT\npragma solidity >=0.4.22 <0.9.0;\n\ncontract AdvancedStorage {\n  uint[] public arrayStorage;\n\n  function add(uint id) public {\n    arrayStorage.push(id);\n  }\n\n  function get(uint index) view public returns(uint) {\n    return arrayStorage[index];\n  }\n\n  function getAll() view public returns(uint[] memory) {\n    return arrayStorage;\n  }\n\n  function storageLength() view public returns(uint) {\n    return arrayStorage.length;\n  }  \n}\n",
  "sourcePath": "/var/www/html/dapp30/advanced-storage/contracts/AdvancedStorage.sol",
  "compiler": {
    "name": "solc",
    "version": "0.8.11+commit.d7f03943.Emscripten.clang"
  },
  "schemaVersion": "3.4.4",
  "updatedAt": "2022-04-23T13:23:09.763Z",
  "networkType": "ethereum",
  "devdoc": {
    "kind": "dev",
    "methods": {},
    "version": 1
  },
  "userdoc": {
    "kind": "user",
    "methods": {},
    "version": 1
  }
}